{
  "contractName": "Identity",
  "abi": [
    {
      "anonymous": false,
      "inputs": [
        {
          "indexed": true,
          "internalType": "address",
          "name": "user",
          "type": "address"
        },
        {
          "indexed": true,
          "internalType": "address",
          "name": "issuer",
          "type": "address"
        },
        {
          "indexed": false,
          "internalType": "string",
          "name": "credentialId",
          "type": "string"
        }
      ],
      "name": "CredentialIssued",
      "type": "event"
    },
    {
      "anonymous": false,
      "inputs": [
        {
          "indexed": true,
          "internalType": "address",
          "name": "user",
          "type": "address"
        },
        {
          "indexed": true,
          "internalType": "address",
          "name": "issuer",
          "type": "address"
        },
        {
          "indexed": false,
          "internalType": "string",
          "name": "credentialId",
          "type": "string"
        }
      ],
      "name": "CredentialRevalidated",
      "type": "event"
    },
    {
      "anonymous": false,
      "inputs": [
        {
          "indexed": true,
          "internalType": "address",
          "name": "user",
          "type": "address"
        },
        {
          "indexed": true,
          "internalType": "address",
          "name": "issuer",
          "type": "address"
        },
        {
          "indexed": false,
          "internalType": "string",
          "name": "credentialId",
          "type": "string"
        }
      ],
      "name": "CredentialRevoked",
      "type": "event"
    },
    {
      "inputs": [
        {
          "internalType": "address",
          "name": "",
          "type": "address"
        },
        {
          "internalType": "uint256",
          "name": "",
          "type": "uint256"
        }
      ],
      "name": "credentials",
      "outputs": [
        {
          "internalType": "address",
          "name": "issuer",
          "type": "address"
        },
        {
          "internalType": "string",
          "name": "credentialId",
          "type": "string"
        },
        {
          "internalType": "string",
          "name": "dataHash",
          "type": "string"
        },
        {
          "internalType": "bool",
          "name": "valid",
          "type": "bool"
        }
      ],
      "stateMutability": "view",
      "type": "function",
      "constant": true
    },
    {
      "inputs": [
        {
          "internalType": "address",
          "name": "user",
          "type": "address"
        }
      ],
      "name": "getCredentials",
      "outputs": [
        {
          "components": [
            {
              "internalType": "address",
              "name": "issuer",
              "type": "address"
            },
            {
              "internalType": "string",
              "name": "credentialId",
              "type": "string"
            },
            {
              "internalType": "string",
              "name": "dataHash",
              "type": "string"
            },
            {
              "internalType": "bool",
              "name": "valid",
              "type": "bool"
            }
          ],
          "internalType": "struct Identity.Credential[]",
          "name": "",
          "type": "tuple[]"
        }
      ],
      "stateMutability": "view",
      "type": "function",
      "constant": true
    },
    {
      "inputs": [
        {
          "internalType": "address",
          "name": "user",
          "type": "address"
        }
      ],
      "name": "getValidCredentials",
      "outputs": [
        {
          "components": [
            {
              "internalType": "address",
              "name": "issuer",
              "type": "address"
            },
            {
              "internalType": "string",
              "name": "credentialId",
              "type": "string"
            },
            {
              "internalType": "string",
              "name": "dataHash",
              "type": "string"
            },
            {
              "internalType": "bool",
              "name": "valid",
              "type": "bool"
            }
          ],
          "internalType": "struct Identity.Credential[]",
          "name": "",
          "type": "tuple[]"
        }
      ],
      "stateMutability": "view",
      "type": "function",
      "constant": true
    },
    {
      "inputs": [
        {
          "internalType": "address",
          "name": "user",
          "type": "address"
        },
        {
          "internalType": "string",
          "name": "credentialId",
          "type": "string"
        },
        {
          "internalType": "string",
          "name": "dataHash",
          "type": "string"
        },
        {
          "internalType": "bool",
          "name": "revalidate",
          "type": "bool"
        }
      ],
      "name": "issueCredential",
      "outputs": [],
      "stateMutability": "nonpayable",
      "type": "function"
    },
    {
      "inputs": [
        {
          "internalType": "address",
          "name": "user",
          "type": "address"
        },
        {
          "internalType": "string",
          "name": "credentialId",
          "type": "string"
        }
      ],
      "name": "verifyCredential",
      "outputs": [
        {
          "internalType": "bool",
          "name": "",
          "type": "bool"
        }
      ],
      "stateMutability": "view",
      "type": "function",
      "constant": true
    },
    {
      "inputs": [
        {
          "internalType": "address",
          "name": "user",
          "type": "address"
        },
        {
          "internalType": "string",
          "name": "credentialId",
          "type": "string"
        }
      ],
      "name": "revokeCredential",
      "outputs": [],
      "stateMutability": "nonpayable",
      "type": "function"
    }
  ],
  "bytecode": "0x608060405234801561001057600080fd5b50612232806100206000396000f3fe608060405234801561001057600080fd5b50600436106100625760003560e01c806303cb278a14610067578063209c7ad11461009a5780636505aad0146100ca57806384270608146100e6578063b94f550c14610116578063bcaed81814610132575b600080fd5b610081600480360381019061007c919061196e565b610162565b6040516100919493929190611ddb565b60405180910390f35b6100b460048036038101906100af9190611887565b6102ec565b6040516100c19190611e50565b60405180910390f35b6100e460048036038101906100df91906118db565b6104dd565b005b61010060048036038101906100fb919061185e565b6108e2565b60405161010d9190611e2e565b60405180910390f35b610130600480360381019061012b9190611887565b610be1565b005b61014c6004803603810190610147919061185e565b61105b565b6040516101599190611e2e565b60405180910390f35b6000602052816000526040600020818154811061017e57600080fd5b9060005260206000209060040201600091509150508060000160009054906101000a900473ffffffffffffffffffffffffffffffffffffffff16908060010180546101c89061209e565b80601f01602080910402602001604051908101604052809291908181526020018280546101f49061209e565b80156102415780601f1061021657610100808354040283529160200191610241565b820191906000526020600020905b81548152906001019060200180831161022457829003601f168201915b5050505050908060020180546102569061209e565b80601f01602080910402602001604051908101604052809291908181526020018280546102829061209e565b80156102cf5780601f106102a4576101008083540402835291602001916102cf565b820191906000526020600020905b8154815290600101906020018083116102b257829003601f168201915b5050505050908060030160009054906101000a900460ff16905084565b600080600090505b6000808573ffffffffffffffffffffffffffffffffffffffff1673ffffffffffffffffffffffffffffffffffffffff168152602001908152602001600020805490508110156104d1578260405160200161034e9190611dad565b604051602081830303815290604052805190602001206000808673ffffffffffffffffffffffffffffffffffffffff1673ffffffffffffffffffffffffffffffffffffffff16815260200190815260200160002082815481106103da577f4e487b7100000000000000000000000000000000000000000000000000000000600052603260045260246000fd5b90600052602060002090600402016001016040516020016103fb9190611dc4565b604051602081830303815290604052805190602001201480156104af57506000808573ffffffffffffffffffffffffffffffffffffffff1673ffffffffffffffffffffffffffffffffffffffff168152602001908152602001600020818154811061048f577f4e487b7100000000000000000000000000000000000000000000000000000000600052603260045260246000fd5b906000526020600020906004020160030160009054906101000a900460ff165b156104be5760019150506104d7565b80806104c9906120d0565b9150506102f4565b50600090505b92915050565b60006104e98585611562565b90507fffffffffffffffffffffffffffffffffffffffffffffffffffffffffffffffff8114610731576000808673ffffffffffffffffffffffffffffffffffffffff1673ffffffffffffffffffffffffffffffffffffffff1681526020019081526020016000208181548110610588577f4e487b7100000000000000000000000000000000000000000000000000000000600052603260045260246000fd5b906000526020600020906004020160030160009054906101000a900460ff166106f657816105eb576040517f08c379a00000000000000000000000000000000000000000000000000000000081526004016105e290611ecd565b60405180910390fd5b60016000808773ffffffffffffffffffffffffffffffffffffffff1673ffffffffffffffffffffffffffffffffffffffff1681526020019081526020016000208281548110610663577f4e487b7100000000000000000000000000000000000000000000000000000000600052603260045260246000fd5b906000526020600020906004020160030160006101000a81548160ff0219169083151502179055503373ffffffffffffffffffffffffffffffffffffffff168573ffffffffffffffffffffffffffffffffffffffff167fedf4164222daa233a3dd690857eec1af8f8ff660ee44a25f07cc4733aae872de866040516106e89190611e6b565b60405180910390a3506108dc565b6040517f08c379a000000000000000000000000000000000000000000000000000000000815260040161072890611ead565b60405180910390fd5b6000808673ffffffffffffffffffffffffffffffffffffffff1673ffffffffffffffffffffffffffffffffffffffff16815260200190815260200160002060405180608001604052803373ffffffffffffffffffffffffffffffffffffffff16815260200186815260200185815260200160011515815250908060018154018082558091505060019003906000526020600020906004020160009091909190915060008201518160000160006101000a81548173ffffffffffffffffffffffffffffffffffffffff021916908373ffffffffffffffffffffffffffffffffffffffff16021790555060208201518160010190805190602001906108359291906116d4565b5060408201518160020190805190602001906108529291906116d4565b5060608201518160030160006101000a81548160ff02191690831515021790555050503373ffffffffffffffffffffffffffffffffffffffff168573ffffffffffffffffffffffffffffffffffffffff167f5e411fa350dbdf70682c0a3c1115999a6ef7a54143c1a6748b2a0d53da4717fd866040516108d29190611e6b565b60405180910390a3505b50505050565b606060008060008473ffffffffffffffffffffffffffffffffffffffff1673ffffffffffffffffffffffffffffffffffffffff1681526020019081526020016000208054905014156109b057600067ffffffffffffffff81111561096f577f4e487b7100000000000000000000000000000000000000000000000000000000600052604160045260246000fd5b6040519080825280602002602001820160405280156109a857816020015b61099561175a565b81526020019060019003908161098d5790505b509050610bdc565b6000808373ffffffffffffffffffffffffffffffffffffffff1673ffffffffffffffffffffffffffffffffffffffff168152602001908152602001600020805480602002602001604051908101604052809291908181526020016000905b82821015610bd557838290600052602060002090600402016040518060800160405290816000820160009054906101000a900473ffffffffffffffffffffffffffffffffffffffff1673ffffffffffffffffffffffffffffffffffffffff1673ffffffffffffffffffffffffffffffffffffffff168152602001600182018054610a979061209e565b80601f0160208091040260200160405190810160405280929190818152602001828054610ac39061209e565b8015610b105780601f10610ae557610100808354040283529160200191610b10565b820191906000526020600020905b815481529060010190602001808311610af357829003601f168201915b50505050508152602001600282018054610b299061209e565b80601f0160208091040260200160405190810160405280929190818152602001828054610b559061209e565b8015610ba25780601f10610b7757610100808354040283529160200191610ba2565b820191906000526020600020905b815481529060010190602001808311610b8557829003601f168201915b505050505081526020016003820160009054906101000a900460ff16151515158152505081526020019060010190610a0e565b5050505090505b919050565b6000805b6000808573ffffffffffffffffffffffffffffffffffffffff1673ffffffffffffffffffffffffffffffffffffffff168152602001908152602001600020805490508110156110145782604051602001610c3f9190611dad565b604051602081830303815290604052805190602001206000808673ffffffffffffffffffffffffffffffffffffffff1673ffffffffffffffffffffffffffffffffffffffff1681526020019081526020016000208281548110610ccb577f4e487b7100000000000000000000000000000000000000000000000000000000600052603260045260246000fd5b9060005260206000209060040201600101604051602001610cec9190611dc4565b60405160208183030381529060405280519060200120141561100157600191503373ffffffffffffffffffffffffffffffffffffffff166000808673ffffffffffffffffffffffffffffffffffffffff1673ffffffffffffffffffffffffffffffffffffffff1681526020019081526020016000208281548110610d99577f4e487b7100000000000000000000000000000000000000000000000000000000600052603260045260246000fd5b906000526020600020906004020160000160009054906101000a900473ffffffffffffffffffffffffffffffffffffffff1673ffffffffffffffffffffffffffffffffffffffff1614610e21576040517f08c379a0000000000000000000000000000000000000000000000000000000008152600401610e1890611f0d565b60405180910390fd5b6000808573ffffffffffffffffffffffffffffffffffffffff1673ffffffffffffffffffffffffffffffffffffffff1681526020019081526020016000208181548110610e97577f4e487b7100000000000000000000000000000000000000000000000000000000600052603260045260246000fd5b906000526020600020906004020160030160009054906101000a900460ff16610ef5576040517f08c379a0000000000000000000000000000000000000000000000000000000008152600401610eec90611eed565b60405180910390fd5b60008060008673ffffffffffffffffffffffffffffffffffffffff1673ffffffffffffffffffffffffffffffffffffffff1681526020019081526020016000208281548110610f6d577f4e487b7100000000000000000000000000000000000000000000000000000000600052603260045260246000fd5b906000526020600020906004020160030160006101000a81548160ff0219169083151502179055503373ffffffffffffffffffffffffffffffffffffffff168473ffffffffffffffffffffffffffffffffffffffff167f1fffdf88eb0d980b8991a132bc5c3794746ad0a9f18bc9ed548c85d6de603c3285604051610ff29190611e6b565b60405180910390a35050611057565b808061100c906120d0565b915050610be5565b5080611055576040517f08c379a000000000000000000000000000000000000000000000000000000000815260040161104c90611e8d565b60405180910390fd5b505b5050565b60606000805b6000808573ffffffffffffffffffffffffffffffffffffffff1673ffffffffffffffffffffffffffffffffffffffff16815260200190815260200160002080549050811015611166576000808573ffffffffffffffffffffffffffffffffffffffff1673ffffffffffffffffffffffffffffffffffffffff1681526020019081526020016000208181548110611120577f4e487b7100000000000000000000000000000000000000000000000000000000600052603260045260246000fd5b906000526020600020906004020160030160009054906101000a900460ff161561115357818061114f906120d0565b9250505b808061115e906120d0565b915050611061565b5060008167ffffffffffffffff8111156111a9577f4e487b7100000000000000000000000000000000000000000000000000000000600052604160045260246000fd5b6040519080825280602002602001820160405280156111e257816020015b6111cf61175a565b8152602001906001900390816111c75790505b5090506000805b6000808773ffffffffffffffffffffffffffffffffffffffff1673ffffffffffffffffffffffffffffffffffffffff16815260200190815260200160002080549050811015611556576000808773ffffffffffffffffffffffffffffffffffffffff1673ffffffffffffffffffffffffffffffffffffffff16815260200190815260200160002081815481106112a8577f4e487b7100000000000000000000000000000000000000000000000000000000600052603260045260246000fd5b906000526020600020906004020160030160009054906101000a900460ff1615611543576000808773ffffffffffffffffffffffffffffffffffffffff1673ffffffffffffffffffffffffffffffffffffffff1681526020019081526020016000208181548110611342577f4e487b7100000000000000000000000000000000000000000000000000000000600052603260045260246000fd5b90600052602060002090600402016040518060800160405290816000820160009054906101000a900473ffffffffffffffffffffffffffffffffffffffff1673ffffffffffffffffffffffffffffffffffffffff1673ffffffffffffffffffffffffffffffffffffffff1681526020016001820180546113c19061209e565b80601f01602080910402602001604051908101604052809291908181526020018280546113ed9061209e565b801561143a5780601f1061140f5761010080835404028352916020019161143a565b820191906000526020600020905b81548152906001019060200180831161141d57829003601f168201915b505050505081526020016002820180546114539061209e565b80601f016020809104026020016040519081016040528092919081815260200182805461147f9061209e565b80156114cc5780601f106114a1576101008083540402835291602001916114cc565b820191906000526020600020905b8154815290600101906020018083116114af57829003601f168201915b505050505081526020016003820160009054906101000a900460ff161515151581525050838381518110611529577f4e487b7100000000000000000000000000000000000000000000000000000000600052603260045260246000fd5b6020026020010181905250818061153f906120d0565b9250505b808061154e906120d0565b9150506111e9565b50819350505050919050565b600080600090505b6000808573ffffffffffffffffffffffffffffffffffffffff1673ffffffffffffffffffffffffffffffffffffffff168152602001908152602001600020805490508110156116a957826040516020016115c49190611dad565b604051602081830303815290604052805190602001206000808673ffffffffffffffffffffffffffffffffffffffff1673ffffffffffffffffffffffffffffffffffffffff1681526020019081526020016000208281548110611650577f4e487b7100000000000000000000000000000000000000000000000000000000600052603260045260246000fd5b90600052602060002090600402016001016040516020016116719190611dc4565b60405160208183030381529060405280519060200120141561169657809150506116ce565b80806116a1906120d0565b91505061156a565b507fffffffffffffffffffffffffffffffffffffffffffffffffffffffffffffffff90505b92915050565b8280546116e09061209e565b90600052602060002090601f0160209004810192826117025760008555611749565b82601f1061171b57805160ff1916838001178555611749565b82800160010185558215611749579182015b8281111561174857825182559160200191906001019061172d565b5b509050611756919061179a565b5090565b6040518060800160405280600073ffffffffffffffffffffffffffffffffffffffff16815260200160608152602001606081526020016000151581525090565b5b808211156117b357600081600090555060010161179b565b5090565b60006117ca6117c584611f5e565b611f2d565b9050828152602081018484840111156117e257600080fd5b6117ed84828561205c565b509392505050565b600081359050611804816121b7565b92915050565b600081359050611819816121ce565b92915050565b600082601f83011261183057600080fd5b81356118408482602086016117b7565b91505092915050565b600081359050611858816121e5565b92915050565b60006020828403121561187057600080fd5b600061187e848285016117f5565b91505092915050565b6000806040838503121561189a57600080fd5b60006118a8858286016117f5565b925050602083013567ffffffffffffffff8111156118c557600080fd5b6118d18582860161181f565b9150509250929050565b600080600080608085870312156118f157600080fd5b60006118ff878288016117f5565b945050602085013567ffffffffffffffff81111561191c57600080fd5b6119288782880161181f565b935050604085013567ffffffffffffffff81111561194557600080fd5b6119518782880161181f565b92505060606119628782880161180a565b91505092959194509250565b6000806040838503121561198157600080fd5b600061198f858286016117f5565b92505060206119a085828601611849565b9150509250929050565b60006119b68383611d43565b905092915050565b6119c781612014565b82525050565b6119d681612014565b82525050565b60006119e782611fb3565b6119f18185611fd6565b935083602082028501611a0385611f8e565b8060005b85811015611a3f5784840389528151611a2085826119aa565b9450611a2b83611fc9565b925060208a01995050600181019050611a07565b50829750879550505050505092915050565b611a5a81612026565b82525050565b611a6981612026565b82525050565b6000611a7a82611fbe565b611a848185611fe7565b9350611a9481856020860161206b565b611a9d816121a6565b840191505092915050565b6000611ab382611fbe565b611abd8185611ff8565b9350611acd81856020860161206b565b611ad6816121a6565b840191505092915050565b6000611aec82611fbe565b611af68185612009565b9350611b0681856020860161206b565b80840191505092915050565b60008154611b1f8161209e565b611b298186612009565b94506001821660008114611b445760018114611b5557611b88565b60ff19831686528186019350611b88565b611b5e85611f9e565b60005b83811015611b8057815481890152600182019150602081019050611b61565b838801955050505b50505092915050565b6000611b9e601483611ff8565b91507f43726564656e7469616c206e6f7420666f756e640000000000000000000000006000830152602082019050919050565b6000611bde602683611ff8565b91507f43726564656e7469616c20616c72656164792065786973747320616e6420697360008301527f2076616c696400000000000000000000000000000000000000000000000000006020830152604082019050919050565b6000611c44604a83611ff8565b91507f43726564656e7469616c2065786973747320627574206973207265766f6b656460008301527f2e2053657420726576616c696461746520746f207472756520746f207265766160208301527f6c69646174652069742e000000000000000000000000000000000000000000006040830152606082019050919050565b6000611cd0601d83611ff8565b91507f43726564656e7469616c20697320616c7265616479207265766f6b65640000006000830152602082019050919050565b6000611d10601683611ff8565b91507f4f6e6c79206973737565722063616e207265766f6b65000000000000000000006000830152602082019050919050565b6000608083016000830151611d5b60008601826119be565b5060208301518482036020860152611d738282611a6f565b91505060408301518482036040860152611d8d8282611a6f565b9150506060830151611da26060860182611a51565b508091505092915050565b6000611db98284611ae1565b915081905092915050565b6000611dd08284611b12565b915081905092915050565b6000608082019050611df060008301876119cd565b8181036020830152611e028186611aa8565b90508181036040830152611e168185611aa8565b9050611e256060830184611a60565b95945050505050565b60006020820190508181036000830152611e4881846119dc565b905092915050565b6000602082019050611e656000830184611a60565b92915050565b60006020820190508181036000830152611e858184611aa8565b905092915050565b60006020820190508181036000830152611ea681611b91565b9050919050565b60006020820190508181036000830152611ec681611bd1565b9050919050565b60006020820190508181036000830152611ee681611c37565b9050919050565b60006020820190508181036000830152611f0681611cc3565b9050919050565b60006020820190508181036000830152611f2681611d03565b9050919050565b6000604051905081810181811067ffffffffffffffff82111715611f5457611f53612177565b5b8060405250919050565b600067ffffffffffffffff821115611f7957611f78612177565b5b601f19601f8301169050602081019050919050565b6000819050602082019050919050565b60008190508160005260206000209050919050565b600081519050919050565b600081519050919050565b6000602082019050919050565b600082825260208201905092915050565b600082825260208201905092915050565b600082825260208201905092915050565b600081905092915050565b600061201f82612032565b9050919050565b60008115159050919050565b600073ffffffffffffffffffffffffffffffffffffffff82169050919050565b6000819050919050565b82818337600083830152505050565b60005b8381101561208957808201518184015260208101905061206e565b83811115612098576000848401525b50505050565b600060028204905060018216806120b657607f821691505b602082108114156120ca576120c9612148565b5b50919050565b60006120db82612052565b91507fffffffffffffffffffffffffffffffffffffffffffffffffffffffffffffffff82141561210e5761210d612119565b5b600182019050919050565b7f4e487b7100000000000000000000000000000000000000000000000000000000600052601160045260246000fd5b7f4e487b7100000000000000000000000000000000000000000000000000000000600052602260045260246000fd5b7f4e487b7100000000000000000000000000000000000000000000000000000000600052604160045260246000fd5b6000601f19601f8301169050919050565b6121c081612014565b81146121cb57600080fd5b50565b6121d781612026565b81146121e257600080fd5b50565b6121ee81612052565b81146121f957600080fd5b5056fea2646970667358221220ca6dd2567870bbca3c2e95d667cbe4a1c803ec0a50eba129120c974e2852d4fb64736f6c63430008000033",
  "immutableReferences": {},
  "source": "// SPDX-License-Identifier: CC BY-NC-ND 4.0\npragma solidity ^0.8.0;\n\ncontract Identity {\n    struct Credential {\n        address issuer;\n        string credentialId;\n        string dataHash;\n        bool valid;\n    }\n\n    mapping(address => Credential[]) public credentials;\n\n    event CredentialIssued(address indexed user, address indexed issuer, string credentialId);\n    event CredentialRevoked(address indexed user, address indexed issuer, string credentialId);\n    event CredentialRevalidated(address indexed user, address indexed issuer, string credentialId);\n\n\n    function getCredentials(address user) public view returns (Credential[] memory) {\n        if (credentials[user].length == 0) {\n            return new Credential[](0);\n        }\n        return credentials[user];\n    }\n\n\n    function getValidCredentials(address user) public view returns (Credential[] memory) {\n        uint validCount = 0;\n        \n        // Count valid credentials\n        for (uint i = 0; i < credentials[user].length; i++) {\n            if (credentials[user][i].valid) {\n                validCount++;\n            }\n        }\n\n        // Create a new array to store valid credentials\n        Credential[] memory validCredentials = new Credential[](validCount);\n        uint index = 0;\n\n        // Populate the valid credentials array\n        for (uint i = 0; i < credentials[user].length; i++) {\n            if (credentials[user][i].valid) {\n                validCredentials[index] = credentials[user][i];\n                index++;\n            }\n        }\n\n        return validCredentials;\n    }\n\n\n    function issueCredential(address user, string memory credentialId, string memory dataHash, bool revalidate) public {\n        uint existingIndex = getCredentialIndex(user, credentialId);\n        \n        if (existingIndex != type(uint).max) {\n            // Credential exists, check its validity\n            if (!credentials[user][existingIndex].valid) {\n                require(revalidate, \"Credential exists but is revoked. Set revalidate to true to revalidate it.\");\n                credentials[user][existingIndex].valid = true;\n                emit CredentialRevalidated(user, msg.sender, credentialId);\n                return;\n            } else {\n                revert(\"Credential already exists and is valid\");\n            }\n        }\n        \n        // New credential issuance\n        credentials[user].push(Credential(msg.sender, credentialId, dataHash, true));\n        emit CredentialIssued(user, msg.sender, credentialId);\n    }\n\n\n    function verifyCredential(address user, string memory credentialId) public view returns (bool) {\n        for (uint i = 0; i < credentials[user].length; i++) {\n            if (keccak256(abi.encodePacked(credentials[user][i].credentialId)) == keccak256(abi.encodePacked(credentialId)) && credentials[user][i].valid) {\n                return true;\n            }\n        }\n        return false;\n    }\n\n\n    function revokeCredential(address user, string memory credentialId) public {\n        bool credentialFound = false;\n        for (uint i = 0; i < credentials[user].length; i++) {\n            if (keccak256(abi.encodePacked(credentials[user][i].credentialId)) == keccak256(abi.encodePacked(credentialId))) {\n                credentialFound = true;\n                require(credentials[user][i].issuer == msg.sender, \"Only issuer can revoke\");\n                require(credentials[user][i].valid, \"Credential is already revoked\");\n                credentials[user][i].valid = false;\n                emit CredentialRevoked(user, msg.sender, credentialId);\n                return;\n            }\n        }\n        require(credentialFound, \"Credential not found\");\n    }\n\n\n    function getCredentialIndex(address user, string memory credentialId) internal view returns (uint) {\n        for (uint i = 0; i < credentials[user].length; i++) {\n            if (keccak256(abi.encodePacked(credentials[user][i].credentialId)) == keccak256(abi.encodePacked(credentialId))) {\n                return i;\n            }\n        }\n        return type(uint).max;\n    }\n}\n",
  "sourcePath": "/Users/angelo/Library/Mobile Documents/com~apple~CloudDocs/Documents/University/MEng_CTI_SSA_2023_2025/Proiect_Disertatie/Decentralised-Identity-System/smart_contracts/contracts/Identity.sol",
  "compiler": {
    "name": "solc",
    "version": "0.8.0+commit.c7dfd78e.Emscripten.clang"
  },
  "schemaVersion": "3.4.16",
  "updatedAt": "2025-02-07T10:20:06.389Z",
  "networkType": "ethereum",
  "devdoc": {
    "kind": "dev",
    "methods": {},
    "version": 1
  },
  "userdoc": {
    "kind": "user",
    "methods": {},
    "version": 1
  }
}