{
  "contractName": "Identity",
  "abi": [
    {
      "anonymous": false,
      "inputs": [
        {
          "indexed": true,
          "internalType": "address",
          "name": "user",
          "type": "address"
        },
        {
          "indexed": true,
          "internalType": "address",
          "name": "issuer",
          "type": "address"
        },
        {
          "indexed": false,
          "internalType": "string",
          "name": "dataHash",
          "type": "string"
        }
      ],
      "name": "CredentialIssued",
      "type": "event"
    },
    {
      "anonymous": false,
      "inputs": [
        {
          "indexed": true,
          "internalType": "address",
          "name": "user",
          "type": "address"
        },
        {
          "indexed": true,
          "internalType": "address",
          "name": "issuer",
          "type": "address"
        },
        {
          "indexed": false,
          "internalType": "string",
          "name": "dataHash",
          "type": "string"
        }
      ],
      "name": "CredentialRevoked",
      "type": "event"
    },
    {
      "inputs": [
        {
          "internalType": "address",
          "name": "",
          "type": "address"
        },
        {
          "internalType": "uint256",
          "name": "",
          "type": "uint256"
        }
      ],
      "name": "credentials",
      "outputs": [
        {
          "internalType": "address",
          "name": "issuer",
          "type": "address"
        },
        {
          "internalType": "string",
          "name": "dataHash",
          "type": "string"
        },
        {
          "internalType": "bool",
          "name": "valid",
          "type": "bool"
        }
      ],
      "stateMutability": "view",
      "type": "function",
      "constant": true
    },
    {
      "inputs": [
        {
          "internalType": "address",
          "name": "user",
          "type": "address"
        },
        {
          "internalType": "string",
          "name": "dataHash",
          "type": "string"
        }
      ],
      "name": "issueCredential",
      "outputs": [],
      "stateMutability": "nonpayable",
      "type": "function"
    },
    {
      "inputs": [
        {
          "internalType": "address",
          "name": "user",
          "type": "address"
        },
        {
          "internalType": "string",
          "name": "dataHash",
          "type": "string"
        }
      ],
      "name": "verifyCredential",
      "outputs": [
        {
          "internalType": "bool",
          "name": "",
          "type": "bool"
        }
      ],
      "stateMutability": "view",
      "type": "function",
      "constant": true
    },
    {
      "inputs": [
        {
          "internalType": "address",
          "name": "user",
          "type": "address"
        },
        {
          "internalType": "string",
          "name": "dataHash",
          "type": "string"
        }
      ],
      "name": "revokeCredential",
      "outputs": [],
      "stateMutability": "nonpayable",
      "type": "function"
    }
  ],
  "bytecode": "0x608060405234801561001057600080fd5b50611313806100206000396000f3fe608060405234801561001057600080fd5b506004361061004c5760003560e01c806303cb278a14610051578063209c7ad11461008357806390c7c49c146100b3578063b94f550c146100cf575b600080fd5b61006b60048036038101906100669190610d03565b6100eb565b60405161007a93929190610f74565b60405180910390f35b61009d60048036038101906100989190610caf565b6101e7565b6040516100aa9190610fb2565b60405180910390f35b6100cd60048036038101906100c89190610caf565b6103d8565b005b6100e960048036038101906100e49190610caf565b6105ac565b005b6000602052816000526040600020818154811061010757600080fd5b9060005260206000209060030201600091509150508060000160009054906101000a900473ffffffffffffffffffffffffffffffffffffffff169080600101805461015190611196565b80601f016020809104026020016040519081016040528092919081815260200182805461017d90611196565b80156101ca5780601f1061019f576101008083540402835291602001916101ca565b820191906000526020600020905b8154815290600101906020018083116101ad57829003601f168201915b5050505050908060020160009054906101000a900460ff16905083565b600080600090505b6000808573ffffffffffffffffffffffffffffffffffffffff1673ffffffffffffffffffffffffffffffffffffffff168152602001908152602001600020805490508110156103cc57826040516020016102499190610f46565b604051602081830303815290604052805190602001206000808673ffffffffffffffffffffffffffffffffffffffff1673ffffffffffffffffffffffffffffffffffffffff16815260200190815260200160002082815481106102d5577f4e487b7100000000000000000000000000000000000000000000000000000000600052603260045260246000fd5b90600052602060002090600302016001016040516020016102f69190610f5d565b604051602081830303815290604052805190602001201480156103aa57506000808573ffffffffffffffffffffffffffffffffffffffff1673ffffffffffffffffffffffffffffffffffffffff168152602001908152602001600020818154811061038a577f4e487b7100000000000000000000000000000000000000000000000000000000600052603260045260246000fd5b906000526020600020906003020160020160009054906101000a900460ff165b156103b95760019150506103d2565b80806103c4906111c8565b9150506101ef565b50600090505b92915050565b6103e28282610a26565b15610422576040517f08c379a000000000000000000000000000000000000000000000000000000000815260040161041990610fef565b60405180910390fd5b6000808373ffffffffffffffffffffffffffffffffffffffff1673ffffffffffffffffffffffffffffffffffffffff16815260200190815260200160002060405180606001604052803373ffffffffffffffffffffffffffffffffffffffff16815260200183815260200160011515815250908060018154018082558091505060019003906000526020600020906003020160009091909190915060008201518160000160006101000a81548173ffffffffffffffffffffffffffffffffffffffff021916908373ffffffffffffffffffffffffffffffffffffffff1602179055506020820151816001019080519060200190610520929190610b7a565b5060408201518160020160006101000a81548160ff02191690831515021790555050503373ffffffffffffffffffffffffffffffffffffffff168273ffffffffffffffffffffffffffffffffffffffff167f5e411fa350dbdf70682c0a3c1115999a6ef7a54143c1a6748b2a0d53da4717fd836040516105a09190610fcd565b60405180910390a35050565b6000805b6000808573ffffffffffffffffffffffffffffffffffffffff1673ffffffffffffffffffffffffffffffffffffffff168152602001908152602001600020805490508110156109df578260405160200161060a9190610f46565b604051602081830303815290604052805190602001206000808673ffffffffffffffffffffffffffffffffffffffff1673ffffffffffffffffffffffffffffffffffffffff1681526020019081526020016000208281548110610696577f4e487b7100000000000000000000000000000000000000000000000000000000600052603260045260246000fd5b90600052602060002090600302016001016040516020016106b79190610f5d565b6040516020818303038152906040528051906020012014156109cc57600191503373ffffffffffffffffffffffffffffffffffffffff166000808673ffffffffffffffffffffffffffffffffffffffff1673ffffffffffffffffffffffffffffffffffffffff1681526020019081526020016000208281548110610764577f4e487b7100000000000000000000000000000000000000000000000000000000600052603260045260246000fd5b906000526020600020906003020160000160009054906101000a900473ffffffffffffffffffffffffffffffffffffffff1673ffffffffffffffffffffffffffffffffffffffff16146107ec576040517f08c379a00000000000000000000000000000000000000000000000000000000081526004016107e39061104f565b60405180910390fd5b6000808573ffffffffffffffffffffffffffffffffffffffff1673ffffffffffffffffffffffffffffffffffffffff1681526020019081526020016000208181548110610862577f4e487b7100000000000000000000000000000000000000000000000000000000600052603260045260246000fd5b906000526020600020906003020160020160009054906101000a900460ff166108c0576040517f08c379a00000000000000000000000000000000000000000000000000000000081526004016108b79061102f565b60405180910390fd5b60008060008673ffffffffffffffffffffffffffffffffffffffff1673ffffffffffffffffffffffffffffffffffffffff1681526020019081526020016000208281548110610938577f4e487b7100000000000000000000000000000000000000000000000000000000600052603260045260246000fd5b906000526020600020906003020160020160006101000a81548160ff0219169083151502179055503373ffffffffffffffffffffffffffffffffffffffff168473ffffffffffffffffffffffffffffffffffffffff167f1fffdf88eb0d980b8991a132bc5c3794746ad0a9f18bc9ed548c85d6de603c32856040516109bd9190610fcd565b60405180910390a35050610a22565b80806109d7906111c8565b9150506105b0565b5080610a20576040517f08c379a0000000000000000000000000000000000000000000000000000000008152600401610a179061100f565b60405180910390fd5b505b5050565b600080600090505b6000808573ffffffffffffffffffffffffffffffffffffffff1673ffffffffffffffffffffffffffffffffffffffff16815260200190815260200160002080549050811015610b6e5782604051602001610a889190610f46565b604051602081830303815290604052805190602001206000808673ffffffffffffffffffffffffffffffffffffffff1673ffffffffffffffffffffffffffffffffffffffff1681526020019081526020016000208281548110610b14577f4e487b7100000000000000000000000000000000000000000000000000000000600052603260045260246000fd5b9060005260206000209060030201600101604051602001610b359190610f5d565b604051602081830303815290604052805190602001201415610b5b576001915050610b74565b8080610b66906111c8565b915050610a2e565b50600090505b92915050565b828054610b8690611196565b90600052602060002090601f016020900481019282610ba85760008555610bef565b82601f10610bc157805160ff1916838001178555610bef565b82800160010185558215610bef579182015b82811115610bee578251825591602001919060010190610bd3565b5b509050610bfc9190610c00565b5090565b5b80821115610c19576000816000905550600101610c01565b5090565b6000610c30610c2b846110a0565b61106f565b905082815260208101848484011115610c4857600080fd5b610c53848285611154565b509392505050565b600081359050610c6a816112af565b92915050565b600082601f830112610c8157600080fd5b8135610c91848260208601610c1d565b91505092915050565b600081359050610ca9816112c6565b92915050565b60008060408385031215610cc257600080fd5b6000610cd085828601610c5b565b925050602083013567ffffffffffffffff811115610ced57600080fd5b610cf985828601610c70565b9150509250929050565b60008060408385031215610d1657600080fd5b6000610d2485828601610c5b565b9250506020610d3585828601610c9a565b9150509250929050565b610d488161110c565b82525050565b610d578161111e565b82525050565b6000610d68826110e5565b610d7281856110f0565b9350610d82818560208601611163565b610d8b8161129e565b840191505092915050565b6000610da1826110e5565b610dab8185611101565b9350610dbb818560208601611163565b80840191505092915050565b60008154610dd481611196565b610dde8186611101565b94506001821660008114610df95760018114610e0a57610e3d565b60ff19831686528186019350610e3d565b610e13856110d0565b60005b83811015610e3557815481890152600182019150602081019050610e16565b838801955050505b50505092915050565b6000610e536019836110f0565b91507f43726564656e7469616c20616c726561647920657869737473000000000000006000830152602082019050919050565b6000610e936014836110f0565b91507f43726564656e7469616c206e6f7420666f756e640000000000000000000000006000830152602082019050919050565b6000610ed3601d836110f0565b91507f43726564656e7469616c20697320616c7265616479207265766f6b65640000006000830152602082019050919050565b6000610f136016836110f0565b91507f4f6e6c79206973737565722063616e207265766f6b65000000000000000000006000830152602082019050919050565b6000610f528284610d96565b915081905092915050565b6000610f698284610dc7565b915081905092915050565b6000606082019050610f896000830186610d3f565b8181036020830152610f9b8185610d5d565b9050610faa6040830184610d4e565b949350505050565b6000602082019050610fc76000830184610d4e565b92915050565b60006020820190508181036000830152610fe78184610d5d565b905092915050565b6000602082019050818103600083015261100881610e46565b9050919050565b6000602082019050818103600083015261102881610e86565b9050919050565b6000602082019050818103600083015261104881610ec6565b9050919050565b6000602082019050818103600083015261106881610f06565b9050919050565b6000604051905081810181811067ffffffffffffffff821117156110965761109561126f565b5b8060405250919050565b600067ffffffffffffffff8211156110bb576110ba61126f565b5b601f19601f8301169050602081019050919050565b60008190508160005260206000209050919050565b600081519050919050565b600082825260208201905092915050565b600081905092915050565b60006111178261112a565b9050919050565b60008115159050919050565b600073ffffffffffffffffffffffffffffffffffffffff82169050919050565b6000819050919050565b82818337600083830152505050565b60005b83811015611181578082015181840152602081019050611166565b83811115611190576000848401525b50505050565b600060028204905060018216806111ae57607f821691505b602082108114156111c2576111c1611240565b5b50919050565b60006111d38261114a565b91507fffffffffffffffffffffffffffffffffffffffffffffffffffffffffffffffff82141561120657611205611211565b5b600182019050919050565b7f4e487b7100000000000000000000000000000000000000000000000000000000600052601160045260246000fd5b7f4e487b7100000000000000000000000000000000000000000000000000000000600052602260045260246000fd5b7f4e487b7100000000000000000000000000000000000000000000000000000000600052604160045260246000fd5b6000601f19601f8301169050919050565b6112b88161110c565b81146112c357600080fd5b50565b6112cf8161114a565b81146112da57600080fd5b5056fea26469706673582212203cda974caaa59ee29b7daeafefafe81813a438a55a4856ee4ec5593da965ff5164736f6c63430008000033",
  "immutableReferences": {},
  "source": "// SPDX-License-Identifier: MIT\npragma solidity ^0.8.0;\n\ncontract Identity {\n    struct Credential {\n        address issuer;\n        string dataHash;\n        bool valid;\n    }\n\n    mapping(address => Credential[]) public credentials;\n\n    event CredentialIssued(address indexed user, address indexed issuer, string dataHash);\n    event CredentialRevoked(address indexed user, address indexed issuer, string dataHash);\n\n    function issueCredential(address user, string memory dataHash) public {\n        require(!credentialExists(user, dataHash), \"Credential already exists\");\n        credentials[user].push(Credential(msg.sender, dataHash, true));\n        emit CredentialIssued(user, msg.sender, dataHash);\n    }\n\n    function verifyCredential(address user, string memory dataHash) public view returns (bool) {\n        for (uint i = 0; i < credentials[user].length; i++) {\n            if (keccak256(abi.encodePacked(credentials[user][i].dataHash)) == keccak256(abi.encodePacked(dataHash)) && credentials[user][i].valid) {\n                return true;\n            }\n        }\n        return false;\n    }\n\n    function revokeCredential(address user, string memory dataHash) public {\n        bool credentialFound = false;\n        for (uint i = 0; i < credentials[user].length; i++) {\n            if (keccak256(abi.encodePacked(credentials[user][i].dataHash)) == keccak256(abi.encodePacked(dataHash))) {\n                credentialFound = true;\n                require(credentials[user][i].issuer == msg.sender, \"Only issuer can revoke\");\n                require(credentials[user][i].valid, \"Credential is already revoked\");\n                credentials[user][i].valid = false;\n                emit CredentialRevoked(user, msg.sender, dataHash);\n                return;\n            }\n        }\n        require(credentialFound, \"Credential not found\");\n    }\n\n    function credentialExists(address user, string memory dataHash) internal view returns (bool) {\n        for (uint i = 0; i < credentials[user].length; i++) {\n            if (keccak256(abi.encodePacked(credentials[user][i].dataHash)) == keccak256(abi.encodePacked(dataHash))) {\n                return true;\n            }\n        }\n        return false;\n    }\n}\n",
  "sourcePath": "/Users/angelo/Library/Mobile Documents/com~apple~CloudDocs/Documents/University/MEng_CTI_SSA_2023_2025/Proiect_Disertatie/Decentralised-Identity-System/contracts/Identity.sol",
  "compiler": {
    "name": "solc",
    "version": "0.8.0+commit.c7dfd78e.Emscripten.clang"
  },
  "schemaVersion": "3.4.16",
  "updatedAt": "2025-01-29T11:06:59.765Z",
  "networkType": "ethereum",
  "devdoc": {
    "kind": "dev",
    "methods": {},
    "version": 1
  },
  "userdoc": {
    "kind": "user",
    "methods": {},
    "version": 1
  }
}