{
  "contractName": "Identity",
  "abi": [
    {
      "anonymous": false,
      "inputs": [
        {
          "indexed": true,
          "internalType": "address",
          "name": "user",
          "type": "address"
        },
        {
          "indexed": true,
          "internalType": "address",
          "name": "issuer",
          "type": "address"
        },
        {
          "indexed": false,
          "internalType": "string",
          "name": "dataHash",
          "type": "string"
        }
      ],
      "name": "CredentialIssued",
      "type": "event"
    },
    {
      "anonymous": false,
      "inputs": [
        {
          "indexed": true,
          "internalType": "address",
          "name": "user",
          "type": "address"
        },
        {
          "indexed": true,
          "internalType": "address",
          "name": "issuer",
          "type": "address"
        },
        {
          "indexed": false,
          "internalType": "string",
          "name": "dataHash",
          "type": "string"
        }
      ],
      "name": "CredentialRevalidated",
      "type": "event"
    },
    {
      "anonymous": false,
      "inputs": [
        {
          "indexed": true,
          "internalType": "address",
          "name": "user",
          "type": "address"
        },
        {
          "indexed": true,
          "internalType": "address",
          "name": "issuer",
          "type": "address"
        },
        {
          "indexed": false,
          "internalType": "string",
          "name": "dataHash",
          "type": "string"
        }
      ],
      "name": "CredentialRevoked",
      "type": "event"
    },
    {
      "inputs": [
        {
          "internalType": "address",
          "name": "",
          "type": "address"
        },
        {
          "internalType": "uint256",
          "name": "",
          "type": "uint256"
        }
      ],
      "name": "credentials",
      "outputs": [
        {
          "internalType": "address",
          "name": "issuer",
          "type": "address"
        },
        {
          "internalType": "string",
          "name": "dataHash",
          "type": "string"
        },
        {
          "internalType": "bool",
          "name": "valid",
          "type": "bool"
        }
      ],
      "stateMutability": "view",
      "type": "function",
      "constant": true
    },
    {
      "inputs": [
        {
          "internalType": "address",
          "name": "user",
          "type": "address"
        }
      ],
      "name": "getCredentials",
      "outputs": [
        {
          "components": [
            {
              "internalType": "address",
              "name": "issuer",
              "type": "address"
            },
            {
              "internalType": "string",
              "name": "dataHash",
              "type": "string"
            },
            {
              "internalType": "bool",
              "name": "valid",
              "type": "bool"
            }
          ],
          "internalType": "struct Identity.Credential[]",
          "name": "",
          "type": "tuple[]"
        }
      ],
      "stateMutability": "view",
      "type": "function",
      "constant": true
    },
    {
      "inputs": [
        {
          "internalType": "address",
          "name": "user",
          "type": "address"
        },
        {
          "internalType": "string",
          "name": "dataHash",
          "type": "string"
        },
        {
          "internalType": "bool",
          "name": "revalidate",
          "type": "bool"
        }
      ],
      "name": "issueCredential",
      "outputs": [],
      "stateMutability": "nonpayable",
      "type": "function"
    },
    {
      "inputs": [
        {
          "internalType": "address",
          "name": "user",
          "type": "address"
        },
        {
          "internalType": "string",
          "name": "dataHash",
          "type": "string"
        }
      ],
      "name": "verifyCredential",
      "outputs": [
        {
          "internalType": "bool",
          "name": "",
          "type": "bool"
        }
      ],
      "stateMutability": "view",
      "type": "function",
      "constant": true
    },
    {
      "inputs": [
        {
          "internalType": "address",
          "name": "user",
          "type": "address"
        },
        {
          "internalType": "string",
          "name": "dataHash",
          "type": "string"
        }
      ],
      "name": "revokeCredential",
      "outputs": [],
      "stateMutability": "nonpayable",
      "type": "function"
    }
  ],
  "bytecode": "0x608060405234801561001057600080fd5b50611b49806100206000396000f3fe608060405234801561001057600080fd5b50600436106100575760003560e01c806303cb278a1461005c5780631cf0b71b1461008e578063209c7ad1146100aa57806384270608146100da578063b94f550c1461010a575b600080fd5b610076600480360381019061007191906112b4565b610126565b60405161008593929190611707565b60405180910390f35b6100a860048036038101906100a3919061124d565b610222565b005b6100c460048036038101906100bf91906111f9565b610603565b6040516100d19190611767565b60405180910390f35b6100f460048036038101906100ef91906111d0565b6107f4565b6040516101019190611745565b60405180910390f35b610124600480360381019061011f91906111f9565b610a61565b005b6000602052816000526040600020818154811061014257600080fd5b9060005260206000209060030201600091509150508060000160009054906101000a900473ffffffffffffffffffffffffffffffffffffffff169080600101805461018c906119b5565b80601f01602080910402602001604051908101604052809291908181526020018280546101b8906119b5565b80156102055780601f106101da57610100808354040283529160200191610205565b820191906000526020600020905b8154815290600101906020018083116101e857829003601f168201915b5050505050908060020160009054906101000a900460ff16905083565b600061022e8484610edb565b90507fffffffffffffffffffffffffffffffffffffffffffffffffffffffffffffffff8114610476576000808573ffffffffffffffffffffffffffffffffffffffff1673ffffffffffffffffffffffffffffffffffffffff16815260200190815260200160002081815481106102cd577f4e487b7100000000000000000000000000000000000000000000000000000000600052603260045260246000fd5b906000526020600020906003020160020160009054906101000a900460ff1661043b5781610330576040517f08c379a0000000000000000000000000000000000000000000000000000000008152600401610327906117e4565b60405180910390fd5b60016000808673ffffffffffffffffffffffffffffffffffffffff1673ffffffffffffffffffffffffffffffffffffffff16815260200190815260200160002082815481106103a8577f4e487b7100000000000000000000000000000000000000000000000000000000600052603260045260246000fd5b906000526020600020906003020160020160006101000a81548160ff0219169083151502179055503373ffffffffffffffffffffffffffffffffffffffff168473ffffffffffffffffffffffffffffffffffffffff167fedf4164222daa233a3dd690857eec1af8f8ff660ee44a25f07cc4733aae872de8560405161042d9190611782565b60405180910390a3506105fe565b6040517f08c379a000000000000000000000000000000000000000000000000000000000815260040161046d906117c4565b60405180910390fd5b6000808573ffffffffffffffffffffffffffffffffffffffff1673ffffffffffffffffffffffffffffffffffffffff16815260200190815260200160002060405180606001604052803373ffffffffffffffffffffffffffffffffffffffff16815260200185815260200160011515815250908060018154018082558091505060019003906000526020600020906003020160009091909190915060008201518160000160006101000a81548173ffffffffffffffffffffffffffffffffffffffff021916908373ffffffffffffffffffffffffffffffffffffffff160217905550602082015181600101908051906020019061057492919061104d565b5060408201518160020160006101000a81548160ff02191690831515021790555050503373ffffffffffffffffffffffffffffffffffffffff168473ffffffffffffffffffffffffffffffffffffffff167f5e411fa350dbdf70682c0a3c1115999a6ef7a54143c1a6748b2a0d53da4717fd856040516105f49190611782565b60405180910390a3505b505050565b600080600090505b6000808573ffffffffffffffffffffffffffffffffffffffff1673ffffffffffffffffffffffffffffffffffffffff168152602001908152602001600020805490508110156107e8578260405160200161066591906116d9565b604051602081830303815290604052805190602001206000808673ffffffffffffffffffffffffffffffffffffffff1673ffffffffffffffffffffffffffffffffffffffff16815260200190815260200160002082815481106106f1577f4e487b7100000000000000000000000000000000000000000000000000000000600052603260045260246000fd5b906000526020600020906003020160010160405160200161071291906116f0565b604051602081830303815290604052805190602001201480156107c657506000808573ffffffffffffffffffffffffffffffffffffffff1673ffffffffffffffffffffffffffffffffffffffff16815260200190815260200160002081815481106107a6577f4e487b7100000000000000000000000000000000000000000000000000000000600052603260045260246000fd5b906000526020600020906003020160020160009054906101000a900460ff165b156107d55760019150506107ee565b80806107e0906119e7565b91505061060b565b50600090505b92915050565b606060008060008473ffffffffffffffffffffffffffffffffffffffff1673ffffffffffffffffffffffffffffffffffffffff1681526020019081526020016000208054905014156108c257600067ffffffffffffffff811115610881577f4e487b7100000000000000000000000000000000000000000000000000000000600052604160045260246000fd5b6040519080825280602002602001820160405280156108ba57816020015b6108a76110d3565b81526020019060019003908161089f5790505b509050610a5c565b6000808373ffffffffffffffffffffffffffffffffffffffff1673ffffffffffffffffffffffffffffffffffffffff168152602001908152602001600020805480602002602001604051908101604052809291908181526020016000905b82821015610a5557838290600052602060002090600302016040518060600160405290816000820160009054906101000a900473ffffffffffffffffffffffffffffffffffffffff1673ffffffffffffffffffffffffffffffffffffffff1673ffffffffffffffffffffffffffffffffffffffff1681526020016001820180546109a9906119b5565b80601f01602080910402602001604051908101604052809291908181526020018280546109d5906119b5565b8015610a225780601f106109f757610100808354040283529160200191610a22565b820191906000526020600020905b815481529060010190602001808311610a0557829003601f168201915b505050505081526020016002820160009054906101000a900460ff16151515158152505081526020019060010190610920565b5050505090505b919050565b6000805b6000808573ffffffffffffffffffffffffffffffffffffffff1673ffffffffffffffffffffffffffffffffffffffff16815260200190815260200160002080549050811015610e945782604051602001610abf91906116d9565b604051602081830303815290604052805190602001206000808673ffffffffffffffffffffffffffffffffffffffff1673ffffffffffffffffffffffffffffffffffffffff1681526020019081526020016000208281548110610b4b577f4e487b7100000000000000000000000000000000000000000000000000000000600052603260045260246000fd5b9060005260206000209060030201600101604051602001610b6c91906116f0565b604051602081830303815290604052805190602001201415610e8157600191503373ffffffffffffffffffffffffffffffffffffffff166000808673ffffffffffffffffffffffffffffffffffffffff1673ffffffffffffffffffffffffffffffffffffffff1681526020019081526020016000208281548110610c19577f4e487b7100000000000000000000000000000000000000000000000000000000600052603260045260246000fd5b906000526020600020906003020160000160009054906101000a900473ffffffffffffffffffffffffffffffffffffffff1673ffffffffffffffffffffffffffffffffffffffff1614610ca1576040517f08c379a0000000000000000000000000000000000000000000000000000000008152600401610c9890611824565b60405180910390fd5b6000808573ffffffffffffffffffffffffffffffffffffffff1673ffffffffffffffffffffffffffffffffffffffff1681526020019081526020016000208181548110610d17577f4e487b7100000000000000000000000000000000000000000000000000000000600052603260045260246000fd5b906000526020600020906003020160020160009054906101000a900460ff16610d75576040517f08c379a0000000000000000000000000000000000000000000000000000000008152600401610d6c90611804565b60405180910390fd5b60008060008673ffffffffffffffffffffffffffffffffffffffff1673ffffffffffffffffffffffffffffffffffffffff1681526020019081526020016000208281548110610ded577f4e487b7100000000000000000000000000000000000000000000000000000000600052603260045260246000fd5b906000526020600020906003020160020160006101000a81548160ff0219169083151502179055503373ffffffffffffffffffffffffffffffffffffffff168473ffffffffffffffffffffffffffffffffffffffff167f1fffdf88eb0d980b8991a132bc5c3794746ad0a9f18bc9ed548c85d6de603c3285604051610e729190611782565b60405180910390a35050610ed7565b8080610e8c906119e7565b915050610a65565b5080610ed5576040517f08c379a0000000000000000000000000000000000000000000000000000000008152600401610ecc906117a4565b60405180910390fd5b505b5050565b600080600090505b6000808573ffffffffffffffffffffffffffffffffffffffff1673ffffffffffffffffffffffffffffffffffffffff168152602001908152602001600020805490508110156110225782604051602001610f3d91906116d9565b604051602081830303815290604052805190602001206000808673ffffffffffffffffffffffffffffffffffffffff1673ffffffffffffffffffffffffffffffffffffffff1681526020019081526020016000208281548110610fc9577f4e487b7100000000000000000000000000000000000000000000000000000000600052603260045260246000fd5b9060005260206000209060030201600101604051602001610fea91906116f0565b60405160208183030381529060405280519060200120141561100f5780915050611047565b808061101a906119e7565b915050610ee3565b507fffffffffffffffffffffffffffffffffffffffffffffffffffffffffffffffff90505b92915050565b828054611059906119b5565b90600052602060002090601f01602090048101928261107b57600085556110c2565b82601f1061109457805160ff19168380011785556110c2565b828001600101855582156110c2579182015b828111156110c15782518255916020019190600101906110a6565b5b5090506110cf919061110c565b5090565b6040518060600160405280600073ffffffffffffffffffffffffffffffffffffffff168152602001606081526020016000151581525090565b5b8082111561112557600081600090555060010161110d565b5090565b600061113c61113784611875565b611844565b90508281526020810184848401111561115457600080fd5b61115f848285611973565b509392505050565b60008135905061117681611ace565b92915050565b60008135905061118b81611ae5565b92915050565b600082601f8301126111a257600080fd5b81356111b2848260208601611129565b91505092915050565b6000813590506111ca81611afc565b92915050565b6000602082840312156111e257600080fd5b60006111f084828501611167565b91505092915050565b6000806040838503121561120c57600080fd5b600061121a85828601611167565b925050602083013567ffffffffffffffff81111561123757600080fd5b61124385828601611191565b9150509250929050565b60008060006060848603121561126257600080fd5b600061127086828701611167565b935050602084013567ffffffffffffffff81111561128d57600080fd5b61129986828701611191565b92505060406112aa8682870161117c565b9150509250925092565b600080604083850312156112c757600080fd5b60006112d585828601611167565b92505060206112e6858286016111bb565b9150509250929050565b60006112fc8383611689565b905092915050565b61130d8161192b565b82525050565b61131c8161192b565b82525050565b600061132d826118ca565b61133781856118ed565b935083602082028501611349856118a5565b8060005b85811015611385578484038952815161136685826112f0565b9450611371836118e0565b925060208a0199505060018101905061134d565b50829750879550505050505092915050565b6113a08161193d565b82525050565b6113af8161193d565b82525050565b60006113c0826118d5565b6113ca81856118fe565b93506113da818560208601611982565b6113e381611abd565b840191505092915050565b60006113f9826118d5565b611403818561190f565b9350611413818560208601611982565b61141c81611abd565b840191505092915050565b6000611432826118d5565b61143c8185611920565b935061144c818560208601611982565b80840191505092915050565b60008154611465816119b5565b61146f8186611920565b9450600182166000811461148a576001811461149b576114ce565b60ff198316865281860193506114ce565b6114a4856118b5565b60005b838110156114c6578154818901526001820191506020810190506114a7565b838801955050505b50505092915050565b60006114e460148361190f565b91507f43726564656e7469616c206e6f7420666f756e640000000000000000000000006000830152602082019050919050565b600061152460268361190f565b91507f43726564656e7469616c20616c72656164792065786973747320616e6420697360008301527f2076616c696400000000000000000000000000000000000000000000000000006020830152604082019050919050565b600061158a604a8361190f565b91507f43726564656e7469616c2065786973747320627574206973207265766f6b656460008301527f2e2053657420726576616c696461746520746f207472756520746f207265766160208301527f6c69646174652069742e000000000000000000000000000000000000000000006040830152606082019050919050565b6000611616601d8361190f565b91507f43726564656e7469616c20697320616c7265616479207265766f6b65640000006000830152602082019050919050565b600061165660168361190f565b91507f4f6e6c79206973737565722063616e207265766f6b65000000000000000000006000830152602082019050919050565b60006060830160008301516116a16000860182611304565b50602083015184820360208601526116b982826113b5565b91505060408301516116ce6040860182611397565b508091505092915050565b60006116e58284611427565b915081905092915050565b60006116fc8284611458565b915081905092915050565b600060608201905061171c6000830186611313565b818103602083015261172e81856113ee565b905061173d60408301846113a6565b949350505050565b6000602082019050818103600083015261175f8184611322565b905092915050565b600060208201905061177c60008301846113a6565b92915050565b6000602082019050818103600083015261179c81846113ee565b905092915050565b600060208201905081810360008301526117bd816114d7565b9050919050565b600060208201905081810360008301526117dd81611517565b9050919050565b600060208201905081810360008301526117fd8161157d565b9050919050565b6000602082019050818103600083015261181d81611609565b9050919050565b6000602082019050818103600083015261183d81611649565b9050919050565b6000604051905081810181811067ffffffffffffffff8211171561186b5761186a611a8e565b5b8060405250919050565b600067ffffffffffffffff8211156118905761188f611a8e565b5b601f19601f8301169050602081019050919050565b6000819050602082019050919050565b60008190508160005260206000209050919050565b600081519050919050565b600081519050919050565b6000602082019050919050565b600082825260208201905092915050565b600082825260208201905092915050565b600082825260208201905092915050565b600081905092915050565b600061193682611949565b9050919050565b60008115159050919050565b600073ffffffffffffffffffffffffffffffffffffffff82169050919050565b6000819050919050565b82818337600083830152505050565b60005b838110156119a0578082015181840152602081019050611985565b838111156119af576000848401525b50505050565b600060028204905060018216806119cd57607f821691505b602082108114156119e1576119e0611a5f565b5b50919050565b60006119f282611969565b91507fffffffffffffffffffffffffffffffffffffffffffffffffffffffffffffffff821415611a2557611a24611a30565b5b600182019050919050565b7f4e487b7100000000000000000000000000000000000000000000000000000000600052601160045260246000fd5b7f4e487b7100000000000000000000000000000000000000000000000000000000600052602260045260246000fd5b7f4e487b7100000000000000000000000000000000000000000000000000000000600052604160045260246000fd5b6000601f19601f8301169050919050565b611ad78161192b565b8114611ae257600080fd5b50565b611aee8161193d565b8114611af957600080fd5b50565b611b0581611969565b8114611b1057600080fd5b5056fea264697066735822122039135a53d148ce2047ffa358ab83b650f36781851bf25bf5d53cd09272cab89264736f6c63430008000033",
  "immutableReferences": {},
  "source": "// SPDX-License-Identifier: MIT\npragma solidity ^0.8.0;\n\ncontract Identity {\n    struct Credential {\n        address issuer;\n        string dataHash;\n        bool valid;\n    }\n\n    mapping(address => Credential[]) public credentials;\n\n    event CredentialIssued(address indexed user, address indexed issuer, string dataHash);\n    event CredentialRevoked(address indexed user, address indexed issuer, string dataHash);\n    event CredentialRevalidated(address indexed user, address indexed issuer, string dataHash);\n\n    function getCredentials(address user) public view returns (Credential[] memory) {\n        if (credentials[user].length == 0) {\n            return new Credential[](0);\n        }\n        return credentials[user];\n    }\n\n    function issueCredential(address user, string memory dataHash, bool revalidate) public {\n        uint existingIndex = getCredentialIndex(user, dataHash);\n        \n        if (existingIndex != type(uint).max) {\n            // Credential exists, check its validity\n            if (!credentials[user][existingIndex].valid) {\n                require(revalidate, \"Credential exists but is revoked. Set revalidate to true to revalidate it.\");\n                credentials[user][existingIndex].valid = true;\n                emit CredentialRevalidated(user, msg.sender, dataHash);\n                return;\n            } else {\n                revert(\"Credential already exists and is valid\");\n            }\n        }\n        \n        // New credential issuance\n        credentials[user].push(Credential(msg.sender, dataHash, true));\n        emit CredentialIssued(user, msg.sender, dataHash);\n    }\n\n    function verifyCredential(address user, string memory dataHash) public view returns (bool) {\n        for (uint i = 0; i < credentials[user].length; i++) {\n            if (keccak256(abi.encodePacked(credentials[user][i].dataHash)) == keccak256(abi.encodePacked(dataHash)) && credentials[user][i].valid) {\n                return true;\n            }\n        }\n        return false;\n    }\n\n    function revokeCredential(address user, string memory dataHash) public {\n        bool credentialFound = false;\n        for (uint i = 0; i < credentials[user].length; i++) {\n            if (keccak256(abi.encodePacked(credentials[user][i].dataHash)) == keccak256(abi.encodePacked(dataHash))) {\n                credentialFound = true;\n                require(credentials[user][i].issuer == msg.sender, \"Only issuer can revoke\");\n                require(credentials[user][i].valid, \"Credential is already revoked\");\n                credentials[user][i].valid = false;\n                emit CredentialRevoked(user, msg.sender, dataHash);\n                return;\n            }\n        }\n        require(credentialFound, \"Credential not found\");\n    }\n\n    function getCredentialIndex(address user, string memory dataHash) internal view returns (uint) {\n        for (uint i = 0; i < credentials[user].length; i++) {\n            if (keccak256(abi.encodePacked(credentials[user][i].dataHash)) == keccak256(abi.encodePacked(dataHash))) {\n                return i;\n            }\n        }\n        return type(uint).max;\n    }\n}\n",
  "sourcePath": "/Users/angelo/Library/Mobile Documents/com~apple~CloudDocs/Documents/University/MEng_CTI_SSA_2023_2025/Proiect_Disertatie/Decentralised-Identity-System/smart_contracts/contracts/Identity.sol",
  "compiler": {
    "name": "solc",
    "version": "0.8.0+commit.c7dfd78e.Emscripten.clang"
  },
  "schemaVersion": "3.4.16",
  "updatedAt": "2025-02-05T10:56:24.361Z",
  "networkType": "ethereum",
  "devdoc": {
    "kind": "dev",
    "methods": {},
    "version": 1
  },
  "userdoc": {
    "kind": "user",
    "methods": {},
    "version": 1
  }
}