{
  "contractName": "Identity",
  "abi": [
    {
      "anonymous": false,
      "inputs": [
        {
          "indexed": true,
          "internalType": "address",
          "name": "user",
          "type": "address"
        },
        {
          "indexed": true,
          "internalType": "address",
          "name": "issuer",
          "type": "address"
        },
        {
          "indexed": false,
          "internalType": "string",
          "name": "dataHash",
          "type": "string"
        }
      ],
      "name": "CredentialIssued",
      "type": "event"
    },
    {
      "anonymous": false,
      "inputs": [
        {
          "indexed": true,
          "internalType": "address",
          "name": "user",
          "type": "address"
        },
        {
          "indexed": true,
          "internalType": "address",
          "name": "issuer",
          "type": "address"
        },
        {
          "indexed": false,
          "internalType": "string",
          "name": "dataHash",
          "type": "string"
        }
      ],
      "name": "CredentialRevoked",
      "type": "event"
    },
    {
      "inputs": [
        {
          "internalType": "address",
          "name": "",
          "type": "address"
        },
        {
          "internalType": "uint256",
          "name": "",
          "type": "uint256"
        }
      ],
      "name": "credentials",
      "outputs": [
        {
          "internalType": "address",
          "name": "issuer",
          "type": "address"
        },
        {
          "internalType": "string",
          "name": "dataHash",
          "type": "string"
        },
        {
          "internalType": "bool",
          "name": "valid",
          "type": "bool"
        }
      ],
      "stateMutability": "view",
      "type": "function",
      "constant": true
    },
    {
      "inputs": [
        {
          "internalType": "address",
          "name": "user",
          "type": "address"
        },
        {
          "internalType": "string",
          "name": "dataHash",
          "type": "string"
        }
      ],
      "name": "issueCredential",
      "outputs": [],
      "stateMutability": "nonpayable",
      "type": "function"
    },
    {
      "inputs": [
        {
          "internalType": "address",
          "name": "user",
          "type": "address"
        },
        {
          "internalType": "string",
          "name": "dataHash",
          "type": "string"
        }
      ],
      "name": "verifyCredential",
      "outputs": [
        {
          "internalType": "bool",
          "name": "",
          "type": "bool"
        }
      ],
      "stateMutability": "view",
      "type": "function",
      "constant": true
    },
    {
      "inputs": [
        {
          "internalType": "address",
          "name": "user",
          "type": "address"
        },
        {
          "internalType": "string",
          "name": "dataHash",
          "type": "string"
        }
      ],
      "name": "revokeCredential",
      "outputs": [],
      "stateMutability": "nonpayable",
      "type": "function"
    }
  ],
  "bytecode": "0x608060405234801561001057600080fd5b50610f3a806100206000396000f3fe608060405234801561001057600080fd5b506004361061004c5760003560e01c806303cb278a14610051578063209c7ad11461008357806390c7c49c146100b3578063b94f550c146100cf575b600080fd5b61006b60048036038101906100669190610aaa565b6100eb565b60405161007a93929190610c1b565b60405180910390f35b61009d60048036038101906100989190610a56565b6101e7565b6040516100aa9190610c59565b60405180910390f35b6100cd60048036038101906100c89190610a56565b6103d8565b005b6100e960048036038101906100e49190610a56565b610562565b005b6000602052816000526040600020818154811061010757600080fd5b9060005260206000209060030201600091509150508060000160009054906101000a900473ffffffffffffffffffffffffffffffffffffffff169080600101805461015190610dbd565b80601f016020809104026020016040519081016040528092919081815260200182805461017d90610dbd565b80156101ca5780601f1061019f576101008083540402835291602001916101ca565b820191906000526020600020905b8154815290600101906020018083116101ad57829003601f168201915b5050505050908060020160009054906101000a900460ff16905083565b600080600090505b6000808573ffffffffffffffffffffffffffffffffffffffff1673ffffffffffffffffffffffffffffffffffffffff168152602001908152602001600020805490508110156103cc57826040516020016102499190610bed565b604051602081830303815290604052805190602001206000808673ffffffffffffffffffffffffffffffffffffffff1673ffffffffffffffffffffffffffffffffffffffff16815260200190815260200160002082815481106102d5577f4e487b7100000000000000000000000000000000000000000000000000000000600052603260045260246000fd5b90600052602060002090600302016001016040516020016102f69190610c04565b604051602081830303815290604052805190602001201480156103aa57506000808573ffffffffffffffffffffffffffffffffffffffff1673ffffffffffffffffffffffffffffffffffffffff168152602001908152602001600020818154811061038a577f4e487b7100000000000000000000000000000000000000000000000000000000600052603260045260246000fd5b906000526020600020906003020160020160009054906101000a900460ff165b156103b95760019150506103d2565b80806103c490610def565b9150506101ef565b50600090505b92915050565b6000808373ffffffffffffffffffffffffffffffffffffffff1673ffffffffffffffffffffffffffffffffffffffff16815260200190815260200160002060405180606001604052803373ffffffffffffffffffffffffffffffffffffffff16815260200183815260200160011515815250908060018154018082558091505060019003906000526020600020906003020160009091909190915060008201518160000160006101000a81548173ffffffffffffffffffffffffffffffffffffffff021916908373ffffffffffffffffffffffffffffffffffffffff16021790555060208201518160010190805190602001906104d6929190610921565b5060408201518160020160006101000a81548160ff02191690831515021790555050503373ffffffffffffffffffffffffffffffffffffffff168273ffffffffffffffffffffffffffffffffffffffff167f5e411fa350dbdf70682c0a3c1115999a6ef7a54143c1a6748b2a0d53da4717fd836040516105569190610c74565b60405180910390a35050565b60005b6000808473ffffffffffffffffffffffffffffffffffffffff1673ffffffffffffffffffffffffffffffffffffffff1681526020019081526020016000208054905081101561091c57816040516020016105bf9190610bed565b604051602081830303815290604052805190602001206000808573ffffffffffffffffffffffffffffffffffffffff1673ffffffffffffffffffffffffffffffffffffffff168152602001908152602001600020828154811061064b577f4e487b7100000000000000000000000000000000000000000000000000000000600052603260045260246000fd5b906000526020600020906003020160010160405160200161066c9190610c04565b6040516020818303038152906040528051906020012014801561072057506000808473ffffffffffffffffffffffffffffffffffffffff1673ffffffffffffffffffffffffffffffffffffffff1681526020019081526020016000208181548110610700577f4e487b7100000000000000000000000000000000000000000000000000000000600052603260045260246000fd5b906000526020600020906003020160020160009054906101000a900460ff165b80156107fe57503373ffffffffffffffffffffffffffffffffffffffff166000808573ffffffffffffffffffffffffffffffffffffffff1673ffffffffffffffffffffffffffffffffffffffff16815260200190815260200160002082815481106107b4577f4e487b7100000000000000000000000000000000000000000000000000000000600052603260045260246000fd5b906000526020600020906003020160000160009054906101000a900473ffffffffffffffffffffffffffffffffffffffff1673ffffffffffffffffffffffffffffffffffffffff16145b156109095760008060008573ffffffffffffffffffffffffffffffffffffffff1673ffffffffffffffffffffffffffffffffffffffff168152602001908152602001600020828154811061087b577f4e487b7100000000000000000000000000000000000000000000000000000000600052603260045260246000fd5b906000526020600020906003020160020160006101000a81548160ff0219169083151502179055503373ffffffffffffffffffffffffffffffffffffffff168373ffffffffffffffffffffffffffffffffffffffff167f1fffdf88eb0d980b8991a132bc5c3794746ad0a9f18bc9ed548c85d6de603c32846040516109009190610c74565b60405180910390a35b808061091490610def565b915050610565565b505050565b82805461092d90610dbd565b90600052602060002090601f01602090048101928261094f5760008555610996565b82601f1061096857805160ff1916838001178555610996565b82800160010185558215610996579182015b8281111561099557825182559160200191906001019061097a565b5b5090506109a391906109a7565b5090565b5b808211156109c05760008160009055506001016109a8565b5090565b60006109d76109d284610cc7565b610c96565b9050828152602081018484840111156109ef57600080fd5b6109fa848285610d7b565b509392505050565b600081359050610a1181610ed6565b92915050565b600082601f830112610a2857600080fd5b8135610a388482602086016109c4565b91505092915050565b600081359050610a5081610eed565b92915050565b60008060408385031215610a6957600080fd5b6000610a7785828601610a02565b925050602083013567ffffffffffffffff811115610a9457600080fd5b610aa085828601610a17565b9150509250929050565b60008060408385031215610abd57600080fd5b6000610acb85828601610a02565b9250506020610adc85828601610a41565b9150509250929050565b610aef81610d33565b82525050565b610afe81610d45565b82525050565b6000610b0f82610d0c565b610b198185610d17565b9350610b29818560208601610d8a565b610b3281610ec5565b840191505092915050565b6000610b4882610d0c565b610b528185610d28565b9350610b62818560208601610d8a565b80840191505092915050565b60008154610b7b81610dbd565b610b858186610d28565b94506001821660008114610ba05760018114610bb157610be4565b60ff19831686528186019350610be4565b610bba85610cf7565b60005b83811015610bdc57815481890152600182019150602081019050610bbd565b838801955050505b50505092915050565b6000610bf98284610b3d565b915081905092915050565b6000610c108284610b6e565b915081905092915050565b6000606082019050610c306000830186610ae6565b8181036020830152610c428185610b04565b9050610c516040830184610af5565b949350505050565b6000602082019050610c6e6000830184610af5565b92915050565b60006020820190508181036000830152610c8e8184610b04565b905092915050565b6000604051905081810181811067ffffffffffffffff82111715610cbd57610cbc610e96565b5b8060405250919050565b600067ffffffffffffffff821115610ce257610ce1610e96565b5b601f19601f8301169050602081019050919050565b60008190508160005260206000209050919050565b600081519050919050565b600082825260208201905092915050565b600081905092915050565b6000610d3e82610d51565b9050919050565b60008115159050919050565b600073ffffffffffffffffffffffffffffffffffffffff82169050919050565b6000819050919050565b82818337600083830152505050565b60005b83811015610da8578082015181840152602081019050610d8d565b83811115610db7576000848401525b50505050565b60006002820490506001821680610dd557607f821691505b60208210811415610de957610de8610e67565b5b50919050565b6000610dfa82610d71565b91507fffffffffffffffffffffffffffffffffffffffffffffffffffffffffffffffff821415610e2d57610e2c610e38565b5b600182019050919050565b7f4e487b7100000000000000000000000000000000000000000000000000000000600052601160045260246000fd5b7f4e487b7100000000000000000000000000000000000000000000000000000000600052602260045260246000fd5b7f4e487b7100000000000000000000000000000000000000000000000000000000600052604160045260246000fd5b6000601f19601f8301169050919050565b610edf81610d33565b8114610eea57600080fd5b50565b610ef681610d71565b8114610f0157600080fd5b5056fea26469706673582212208aa9c181cf8860f799a17547d27bb2c5362556e4b0d684bf2ea1d4bd70389ad864736f6c63430008000033",
  "immutableReferences": {},
  "source": "// SPDX-License-Identifier: MIT\npragma solidity ^0.8.0;\n\ncontract Identity {\n    struct Credential {\n        address issuer;\n        string dataHash;\n        bool valid;\n    }\n\n    mapping(address => Credential[]) public credentials;\n\n    event CredentialIssued(address indexed user, address indexed issuer, string dataHash);\n    event CredentialRevoked(address indexed user, address indexed issuer, string dataHash);\n\n    function issueCredential(address user, string memory dataHash) public {\n        credentials[user].push(Credential(msg.sender, dataHash, true));\n        emit CredentialIssued(user, msg.sender, dataHash);\n    }\n\n    function verifyCredential(address user, string memory dataHash) public view returns (bool) {\n        for (uint i = 0; i < credentials[user].length; i++) {\n            if (keccak256(abi.encodePacked(credentials[user][i].dataHash)) == keccak256(abi.encodePacked(dataHash)) && credentials[user][i].valid) {\n                return true;\n            }\n        }\n        return false;\n    }\n\n    function revokeCredential(address user, string memory dataHash) public {\n        for (uint i = 0; i < credentials[user].length; i++) {\n            if (keccak256(abi.encodePacked(credentials[user][i].dataHash)) == keccak256(abi.encodePacked(dataHash)) && credentials[user][i].valid && credentials[user][i].issuer == msg.sender) {\n                credentials[user][i].valid = false;\n                emit CredentialRevoked(user, msg.sender, dataHash);\n            }\n        }\n    }\n}\n",
  "sourcePath": "/Users/angelo/Library/Mobile Documents/com~apple~CloudDocs/Documents/University/MEng_CTI_SSA_2023_2025/SDM_Sisteme_Distribuite_moderne/Proiect/Decentralised-Identity-System/contracts/Identity.sol",
  "compiler": {
    "name": "solc",
    "version": "0.8.0+commit.c7dfd78e.Emscripten.clang"
  },
  "schemaVersion": "3.4.16",
  "updatedAt": "2024-05-21T11:27:45.586Z",
  "networkType": "ethereum",
  "devdoc": {
    "kind": "dev",
    "methods": {},
    "version": 1
  },
  "userdoc": {
    "kind": "user",
    "methods": {},
    "version": 1
  }
}